:020000040800F2
:10000000580900203D380008DD360008DF360008BA
:10001000E1360008E3360008E5360008000000007D
:10002000000000000000000000000000E7360008AB
:10003000E936000800000000EB360008ED36000845
:1000400055380008593800085D3800086138000844
:1000500065380008693800086D38000871380008F4
:1000600075380008793800087D380008F136000836
:100070008138000885380008893800088D38000864
:100080009138000895380008993800089D38000814
:10009000A1380008A5380008A9380008AD380008C4
:1000A000B1380008B5380008B9380008BD38000874
:1000B000C1380008C5380008C9380008F7360008FC
:1000C000FD360008CD380008D1380008D5380008C2
:1000D000D9380008DD380008E1380008E5380008A4
:1000E0000D370008E9380008ED380008F13800083D
:1000F000F5380008F9380008FD3800080139000813
:1001000005390008093900080D39000811390008BF
:1001100015390008193900081D390008213900086F
:1001200025390008293900082D390008313900081F
:1001300035390008393900083D39000841390008CF
:1001400045390008493900084D390008513900087F
:1001500055390008593900085D390008613900082F
:1001600065390008693900086D39000871390008DF
:1001700075390008793900087D390008813900088F
:1001800085390008893900088D390008913900083F
:100190009539000800000000993900089D390008D1
:1001A000A1390008A5390008A9390008AD390008AF
:1001B000B1390008B5390008B9390008BD3900085F
:1001C000C1390008C5390008C9390008CD3900080F
:1001D000D1390008D53900080000000000000000F7
:1001E000000000000000000000000000000000000F
:1001F0000000000000000000000000000000000CF3
:10020000000C000C000C000C000C000C000C000C8E
:10021000000C000C0000000C000C000000000000AE
:100220000000001B001B001B001B001B0000000047
:1002300000000000000000000000000000000000BE
:100240000000000000008019801980198019C07F0B
:10025000C07F80190033C07FC07F0033003300337C
:1002600000330000000000000000001E003F807509
:1002700080650074003C001E000780058065806575
:100280008075003F001E00040004000000000070A4
:1002900000D840D8C0D880D900730006000C801B5D
:1002A000C036C066C046C0068003000000000000E3
:1002B0000000001E003F003300330033001E000C1E
:1002C000C03CC066806380618063C03E801C0000CB
:1002D000000000000000000C000C000C000C000CE2
:1002E000000000000000000000000000000000000E
:1002F0000000000000000000800000010003000674
:1003000000060004000C000C000C000C000C000C9B
:100310000004000600060003000180000020001019
:100320000018000C000C0004000600060006000681
:10033000000600060004000C000C0018001000204D
:100340000000000C002D003F001E003300000000E4
:10035000000000000000000000000000000000009D
:1003600000000000000000000000000C000C000C69
:10037000000CC0FFC0FF000C000C000C000C0000C3
:10038000000000000000000000000000000000006D
:10039000000000000000000000000000000000005D
:1003A0000000000C000C0004000400080000000025
:1003B0000000000000000000000000000000001E1F
:1003C000001E00000000000000000000000000000F
:1003D000000000000000000000000000000000001D
:1003E00000000000000000000000000C000C0000F5
:1003F00000000000000000030003000300060006E8
:1004000000060006000C000C000C000C0018001880
:1004100000180000000000000000001E003F003334
:10042000806180618061806D806D806180618061AC
:100430000033003F001E0000000000000000000626
:10044000000E001E0036002600060006000600060C
:10045000000600060006000600060000000000007E
:100460000000001E003F80738061806180010003F6
:100470000006000C001800300060807F807F0000C4
:10048000000000000000001C003E00630063000349
:10049000000E000E00038001800180618073003F28
:1004A000001E00000000000000000006000E000E0C
:1004B000001E001E0016003600360066807F807F1A
:1004C0000006000600060000000000000000007F9B
:1004D000007F006000600060006E007F806380012C
:1004E000800180618073003F001E0000000000005A
:1004F0000000001E003F803380610060006E007FBE
:1005000080738061806180618033003F001E000045
:10051000000000000000807F807F80010003000356
:1005200000060006000C000C000C00080018001863
:1005300000180000000000000000001E003F806363
:10054000806180610021001E003F806180618061C8
:100550008061003F001E0000000000000000001E3F
:10056000003F00738061806180618073803F801DE7
:10057000800180610073003F001E00000000000049
:1005800000000000000000000000000C000C000053
:1005900000000000000000000000000C000C000043
:1005A000000000000000000000000000000000004B
:1005B000000C000C00000000000000000000000C17
:1005C000000C00040004000800000000000000000F
:1005D00080008003000E003800600038000E8003A9
:1005E000800000000000000000000000000000008B
:1005F000000000000000807F807F00000000807FFE
:10060000807F0000000000000000000000000000EB
:10061000000000000000000000400070001C000707
:1006200080010007001C0070004000000000000076
:10063000000000000000001F803FC071C060C000CB
:10064000C00180030007000E000C000C0000000C2D
:10065000000C0000000000000000001E003F803180
:1006600080718063806F806D806D806F80670060B7
:100670000032003E001C0000000000000000000EE0
:10068000000E001B001B001B001B80318031803FCF
:10069000803F8031C060C060C0600000000000008A
:1006A0000000007C007E0063006300630063007E46
:1006B000007E0063806180618063007F007E0000B7
:1006C000000000000000001E003F803180610060DB
:1006D0000060006000600060006080618031003F69
:1006E000001E0000000000000000007C007F00638E
:1006F000806380618061806180618061806100636E
:100700000063007E007C0000000000000000807F8D
:10071000807F0060006000600060007F007F0060FC
:10072000006000600060807F807F000000000000AB
:100730000000807F807F0060006000600060007FBC
:10074000007F0060006000600060006000600000EA
:10075000000000000000001E003F8031806100604A
:100760000060006080638063806180618031803FD1
:10077000001E0000000000000000806180618061B8
:10078000806180618061807F807F80618061806125
:100790008061806180610000000000000000003F77
:1007A000003F000C000C000C000C000C000C000CB6
:1007B000000C000C000C003F003F00000000000097
:1007C00000008001800180018001800180018001A2
:1007D00080018001806180618073003F001E000005
:1007E000000000000000C0608061006300660066D9
:1007F000006C0078007C00660066006380618061A8
:10080000C0600000000000000000006000600060A8
:1008100000600060006000600060006000600060D8
:100820000060807F807F0000000000000000C07139
:10083000C071C07BC07AC06AC06AC06EC064C0604C
:10084000C060C060C060C060C06000000000000008
:10085000000080718071807980798079806D806DF1
:10086000806D80658067806780678063806300003B
:10087000000000000000001E003F00338061806126
:100880008061806180618061806180610033003FB0
:10089000001E0000000000000000007E007F80635A
:1008A0008061806180618063007F007E0060006005
:1008B0000060006000600000000000000000001EFA
:1008C000003F003380618061806180618061806170
:1008D000806580670033803F401E000000000000FC
:1008E0000000007E007F8063806180618063007F04
:1008F000007E00660063006380618061C06000006C
:10090000000000000000000E001F80318031003028
:100910000038001E00078003806180618031003F45
:10092000001E0000000000000000C0FFC0FF000C1F
:10093000000C000C000C000C000C000C000C000C57
:10094000000C000C000C00000000000000008061A2
:10095000806180618061806180618061806180618F
:10096000806180618073003F001E00000000000075
:100970000000C060C060C060803180318031001BE9
:10098000001B001B001B000E000E000E00040000E8
:10099000000000000000C0C0C0C0C0C0C0C0C0C0D7
:1009A000C0CC804C804C805E8052805280738061CD
:1009B00080610000000000000000C0C08060806115
:1009C0000033003B001E000C000C001E001F003B0B
:1009D00080718061C0C00000000000000000C0C045
:1009E0008061806100330033001E001E000C000C8B
:1009F000000C000C000C000C000C000000000000BB
:100A00000000803F803F8001000300030006000CCF
:100A1000000C0018001800300060807F807F00000C
:100A200000000000000F000F000C000C000C000C78
:100A3000000C000C000C000C000C000C000C000C56
:100A4000000C000C000F000F000000180018001828
:100A5000000C000C000C000C00060006000600064E
:100A6000000300030003000000000000001E001E41
:100A70000006000600060006000600060006000646
:100A8000000600060006000600060006001E001E06
:100A90000000000C000C001E0012003300338061C7
:100AA0008061000000000000000000000000000065
:100AB0000000000000000000000000000000000036
:100AC0000000000000000000000000000000000026
:100AD00000000000E0FF0000000000380018000CDB
:100AE0000000000000000000000000000000000006
:100AF00000000000000000000000000000000000F6
:100B0000000000000000001F803F80618001801F06
:100B1000803F80618063807FC0380000000000005B
:100B200000000060006000600060006E007F807365
:100B300080618061806180618073007F006E000051
:100B40000000000000000000000000000000001E87
:100B5000003F807380610060006080618073003FAF
:100B6000001E0000000000000000800180018001E4
:100B70008001801D803F8073806180618061806121
:100B80008073803F801D0000000000000000000016
:100B9000000000000000001E003F00738061807FA5
:100BA000807F00608071003F001E00000000000098
:100BB0000000C007C00F000C000C807F807F000C7D
:100BC000000C000C000C000C000C000C000C0000D1
:100BD000000000000000000000000000801D803FB9
:100BE000807380618061806180618073803F801D3F
:100BF00080018063007F003E0000006000600060B4
:100C00000060006F807F80718061806180618061A1
:100C1000806180618061000000000000000000062B
:100C2000000600000000003E003E00060006000630
:100C30000006000600060006000600000000000096
:100C40000006000600000000003E003E0006000610
:100C50000006000600060006000600060006004624
:100C6000007E003C00000060006000600060806169
:100C700000630066006C007C0076006300638061A6
:100C8000C0600000000000000000003E003E0006C2
:100C90000006000600060006000600060006000624
:100CA0000006000600060000000000000000000032
:100CB00000000000000080DDC0FFC0CEC0CCC0CC72
:100CC000C0CCC0CCC0CCC0CCC0CC00000000000068
:100CD00000000000000000000000006F807F8071B5
:100CE00080618061806180618061806180610000DD
:100CF0000000000000000000000000000000001ED6
:100D0000003F807380618061806180618073003FFB
:100D1000001E0000000000000000000000000000B5
:100D2000006E007F8073806180618061806180736C
:100D3000007F006E00600060006000600000000046
:100D400000000000801D803F8073806180618061B1
:100D500080618073803F801D80018001800180015F
:100D6000000000000000000000000067803F003924
:100D70000030003000300030003000300030000023
:100D80000000000000000000000000000000001E45
:100D9000803F80610060007F803F80018061007F34
:100DA000001E000000000000000000000008001805
:100DB0000018007F007F00180018001800180018A5
:100DC0000018801F800F00000000000000000000DD
:100DD00000000000000080618061806180618061AE
:100DE000806180618063807F803D000000000000A2
:100DF00000000000000000000000C0608031803171
:100E00008031001B001B001B000E000E00060000BE
:100E1000000000000000000000000000000080DD75
:100E200080DD80DD005500550055007700770022F9
:100E30000022000000000000000000000000000090
:100E40000000806100330033001E000C000C001E07
:100E5000003300338061000000000000000000004B
:100E60000000000080618061803100330033001B8E
:100E7000001B001B000E000E000E001C007C00700A
:100E800000000000000000000000C07FC07F800163
:100E900000030006000C00180030C07FC07F000077
:100EA0000000000080038007000600060006000620
:100EB0000006000E001C001C000E000600060006C6
:100EC00000060006800780030006000600060006F4
:100ED00000060006000600060006000600060006E2
:100EE0000006000600060006000600060038003C6A
:100EF000000C000C000C000C000C000E000700079A
:100F0000000E000C000C000C000C000C003C003823
:100F10000000000000000000000000000000803819
:100F2000807F00470000000000000000000000007B
:100F30000000000038B5040001D1012032BD04F1E9
:100F40004005687820B900212970204600F003FD93
:100F500000F040F86068216820F070600861206847
:100F6000816821F400418160E06821680128A0685F
:100F70000CBF40F4004040F404408860E068022860
:100F800003D120684FF4006141602068416841F05E
:100F9000007141F4004141602068C16821F40041C2
:100FA000C16060692169A2690143206841EA0221A8
:100FB000C160206AE169226801431160206801680C
:100FC00041F0010101600020686020216970206308
:100FD000A87032BD24206870206801684908490063
:100FE000016070478146CDF80090192301224FF42B
:100FF0000041304600F092BB2DE9FE4F00F087F82B
:101000004ED10C9D002D1CBF0D9F002F03D14FF41E
:10101000007161603FE02078012841D001212170FA
:1010200000F046FDFFF7DEFF002834D1212000F05C
:1010300086F800F05FF910B1002020702BE0708D71
:10104000FF25B0F5807F19D300F072F800F05BF84F
:101050000E9F4A463946304600F081FB00281AD1DF
:1010600000F025F811D089B279B900F030F890B9C4
:1010700000F019F805D300F05BF804E000F050F838
:10108000E4E700F04DF800F03EF8708D0028E0D164
:1010900000F034F808B1012003E000F020F800E08F
:1010A0000220BDE8FE8F708DB0F5807F7047706ABA
:1010B000326801789162706A411C7162708D411EC4
:1010C0007185308D411E3185708D00287047CDF8B7
:1010D00000903B4600228021304600F01FBB316863
:1010E0002020C8613168DFF878004A6802404A6011
:1010F000202161700020A070207070474A46394658
:10110000304600F054BB4146304600F0A2BB0646D4
:1011100006F1400488466078202892469B46704736
:10112000728D3285002000904FF00073D2B270476C
:101130003585002000904FF08073FF22704760706B
:101140004021A170002060607562778570635B4606
:101150000E9900915246CDF80490414630467047B2
:1011600000E800FE026891691268436B002B18BF0B
:101170001847704738B501688A690B68D40508D5E7
:101180001D0606D5446C44F0010444644FF4807598
:10119000CD61510509D51C0607D5416C41F0080108
:1011A00041644FF480640168CC61910509D51A0649
:1011B00007D5416C41F0020141644FF400720168AF
:1011C000CA61416C11F00B0F03D0BDE8344000F050
:1011D00013BA31BD2DE9F041054605F14006D5F8B9
:1011E0002C80307801280F46144608BF022000F0FA
:1011F0007F800120B906307005D5A00603D5394699
:10120000284600F02DF9F806DFF8701630D5E20612
:101210002ED5688DD0B97078282808BFB8F1007F26
:1012200004D13946284600F0B5F95FE070782928E6
:1012300008D1884506D028681021C161284600F0F1
:1012400055FA50E029681020C8614FE02968102045
:10125000C861B8F1000F706840F0040018BFB8F121
:10126000807F706042D17168284600F0C5F93DE08A
:10127000780715D5620713D5688D60B12A68506A62
:101280006A6A1070686A431C288D6B62421E2A8548
:10129000688D421E6A85688D40BB884526D022E055
:1012A000380706D5210704D53946284600F055F8F9
:1012B0001CE0B8071AD5A10718D5688D68B1686A0F
:1012C0002A6801789162686A411C6962688D411ED2
:1012D0006985288D411E298508E0B8F1807F18BFF7
:1012E000B8F1000F02D1284600F07FF800203070DE
:1012F000BDE8F0812DE9FC4100F017F84FF0807354
:10130000EAB200F0A6FA00F024F858B9012D02D094
:1013100000F01CF830B900F012F88021204600F0EF
:10132000FDF900B10120BDE8F6811746DDF8208007
:10133000099EDFF84C2500921D4604467047206840
:10134000FFB2876200964346002270472168380A40
:10135000886232464146204601E22DE9F04100F024
:1013600077F8697801F02801282938D186698169E0
:101370008268C768090C01F0FE08E168360C022992
:1013800006F00106C2F3090207F0FE071AD1D109DF
:1013900008F0060301F006018B420BD1A968491C35
:1013A000A960A96802291ED10023AB600827C76184
:1013B0002B700EE04FF4004100F050F80020287030
:1013C0003A4606E04FF4004100F048F8002028704B
:1013D000424631462046BDE8F04100F06FBB08218F
:1013E000C16100202870BDE8F08138B500F030F808
:1013F000016800224B04AA7002D500F0C6F805E08F
:10140000090403D5026822F40042026068782928A2
:101410000CD1282169702122226300F01EF80022DD
:101420002A702046BDE8324000F049BB68782A287F
:101430000DD12821697022202063022100F00EF8CE
:10144000002028702046BDE8324000F039BB31BD95
:10145000044604F14005206870470121204617E248
:10146000F8B5FFF7F5FF0768687822680E46202177
:10147000212818BF2928D16106D148F20101FFF7C0
:10148000EDFF2122226309E0222818BF2A2805D176
:1014900048F20201FFF7E2FF22202063206800F0FB
:1014A0006FF8DFF8E00321684A6802404A6020468E
:1014B00000F01CF9780404D5206800F066F8A06BF1
:1014C00007E0380409D52068016821F40041016073
:1014D000E06B10B100684168618570070CD5216828
:1014E000486A616A087026F00406606A421C208D12
:1014F000626208B100F07AF8608D18B1686840F057
:10150000040068600020A87000216163686858B119
:101510006968204600F070F8687828282DD1314697
:101520002046BDE8F44035E0E06ADFF85063B042A1
:101530000DD02046FFF759FFE66220206870002199
:10154000216329702046BDE8F24000F0BABA6878FD
:10155000222809D1202169700020206328702046AC
:10156000BDE8F24000F0ACBA202068702163297019
:101570002046BDE8F24000F0A2BAF1BD0028306874
:10158000416841F4004141607047016821F48041A5
:101590000160704738B50446DFF8E002E0620022DF
:1015A00004F14005226320206870AA704907626335
:1015B0000ED52068416A606A0170616A208D4A1CFC
:1015C000626228B100F012F8696841F004016960B4
:1015D00048F20301FFF742FF20681022C261002198
:1015E00029702046BDE8324000F06BBA401E2085CD
:1015F000618D481E6085704770B5044604F1400552
:1016000000226878DFF87032AA70E36262856B6846
:10161000194328281CBF29282A28696007D10321DB
:10162000FFF71CFF28226A70DFF85C0209E048F22D
:101630000301FFF713FF687860281CBF2021697041
:1016400000206063216BA06B0FF2BD06C0B11129B1
:1016500018BF212914D1206801684A0401D5FFF779
:1016600094FFA06B00F032FB012829D0A06B8663A9
:1016700000212970A06B00F08FFA28B3A06B1BE04B
:10168000E06BE8B1122918BF222919D1206801683E
:101690000A0403D5016821F400410160E06B00F009
:1016A00015FB01280CD0E06B866300212970E06BEC
:1016B00000F072FA40B1E06B816BBDE87040084702
:1016C0002046BDE8704000E070BD00F130014A7C6A
:1016D000602A06D120234B7400220A600A7400F0AD
:1016E00033BB00220A600A7400F02FBB00688169D6
:1016F0008A0744BF002181628169CA0703D48169D6
:1017000041F0010181617047806A816B09B100225B
:101710008A63C16B09B100228A63D6E72DE9F041E3
:10172000069F05460E4690461C4628688169314052
:10173000B1420CBF0120002040450DD114F1010F32
:10174000F3D000F0B5F9C01B844201D3002CECD1DA
:1017500000F021F8012000E00020BDE8F08170B524
:1017600005460C46164628688169880711D400F0A2
:1017700036F808B1012070BD14F1010FF3D000F06C
:1017800097F9801B844201D3002CECD100F003F8C0
:10179000F0E7002070BD05F140002022416841F0D3
:1017A000200141604270002181700170704770B566
:1017B00005460C4616462868816988060DD400F057
:1017C0000EF840B900F074F9801B844201D3002C5C
:1017D000F1D1FFF7E0FF012070BD002070BD32465F
:1017E00021462846FFE770B505460C462868816902
:1017F000C80616462BD5286881698A060FD414F1CD
:10180000010FF8D000F054F9801B844201D3002C62
:10181000F1D105F14000416841F0200111E01021B3
:10182000C16120202A68D0612846FFF75FFF286841
:10183000144A41681140416005F14000416841F09F
:10184000040141602022FFF7ADFF012070BD0020A0
:1018500070BD70B50068049C45680C4E46EA54564D
:10186000B543C1F30901294341EA02411943214328
:10187000416070BD000000000000FFFF0000FFFF9E
:101880000020008000E800FED5110008FF63FF0380
:101890000022CB0707D590F84130422203F02803FD
:1018A000282B18BFF2228B0709D590F8413003F09E
:1018B000280342F04402282B18BF42F0B0020B0468
:1018C00048BF42F0B802102908BF42F0900208D089
:1018D000202908BF42F0200203D0402908BF42F06F
:1018E00040020068016821EA02020260704730B4D9
:1018F000002513E050F8042BD30744BFA9F10103DE
:101900009A18091F042942F8045BFAD213468C077F
:1019100044BF15809B1CC90748BF1D7050F8041BAD
:101920000029E7D130BC70475A4882B0816841F045
:1019300001018160816801F0010100910099026854
:1019400042F080520260006800F0805000900098E1
:1019500002B000F042BA38B586B004461422002125
:10196000684600F04BFA21684B48814260D14B4DEC
:10197000296841F001012960286800F00100059004
:101980000598296841F0020129604FF400412A6856
:1019900002F00202059212220598009101920121A3
:1019A0000291002204210491039269464FF0904075
:1019B00000F02EFA122101910122029280200021D2
:1019C00000900391042204926946354800F020FA01
:1019D000E868344940F40010E8601122E868324DAC
:1019E00000F400100590059829601020A8600021DF
:1019F000802028616A60E9606961A961E961296202
:101A0000284600F05FF808B100F032FCA563AC6234
:101A1000002200211F2000F04DFC1F2000F068FC78
:101A200000220021202000F045FC202000F060FC76
:101A300007B030BD10B586B004461422002101A8BD
:101A400000F0DCF921681948814220D1134801696E
:101A500041F001010161016901F00101009100996A
:101A6000026842F0010202600C21006800F00100EF
:101A700000900222009801910292002103910491AA
:101A80004FF090400C21059101A900F0C1F906B07A
:101A900010BD000058100240005400404C1002409D
:101AA0000004004808000240F004002000800040CC
:101AB00001480068704700BF080000207047704769
:101AC0007047704738B5040001D1012032BD21684C
:101AD000DFF85022914204F1240500F044F802217D
:101AE000697020680268A068E16823686FF30E12CD
:101AF000024320690A4361690243A0690A43E1691C
:101B00000243206A0A4302431A60204600F0E1F8CB
:101B1000A068B0F5804F04BF00216160696A207938
:101B200000F014F838B1052805D2204600F0ECF892
:101B300000F012F803E0002028636863A863002126
:101B4000A961012068702970002032BD0860A96A6F
:101B5000E86A486060687047296B00200860696B1C
:101B6000A86B486070470BD2DFF8BC014118142302
:101B7000B1FBF3F18900DFF8B4212962EA61704713
:101B8000DFF8AC0141181422B1FBF2F18900DFF853
:101B9000A4012962E861704738B500F124020024ED
:101BA0005178022906D004209061012151701470EF
:101BB000012428E001680B6823F00E030B60016824
:101BC0000D686D086D000D60516A0B6823F4807319
:101BD0000B60012192F82030D56903F01F03994072
:101BE0006960936AD16A5960116B31B10B6823F453
:101BF00080730B60516B936B4B60012353701470B7
:101C0000516901B18847204632BDF8B500F1240181
:101C10000423CA6914680268156891F8206006F008
:101C20001F0603FA06F73C4210D06F070ED5146862
:101C3000A50603D4146824F00404146000F03DF8F1
:101C4000C968002938D0BDE8F4400847022303FAE8
:101C500006F73C4213D0AF0711D51468A50605D48A
:101C6000146824F00A04146001224A7000F025F878
:101C700000220A708968F9B1BDE8F44008470823DA
:101C800003FA06F6344217D02B0715D5146824F052
:101C90000E041460012291F82030CC6903F01F0378
:101CA0009A40626001228A614A7000220A700969C2
:101CB00011B1BDE8F4400847F1BD91F82020CC698E
:101CC00002F01F02934063607047000090F8250007
:101CD000704710B50168134B446C174A994228BFEE
:101CE000203201F0FF01A4080839142302EB84021A
:101CF000B1FBF3F18264012301F01F010F4AC264BA
:101D000003FA01F1016510BD01790D4A0D4B8365A0
:101D100002EB81024265491E012201F01F018A4047
:101D2000C265704708040240F8FFFDBF0000024092
:101D3000F8FBFDBF0004024000080240800802409A
:101D4000FC080240400902407047704710B532223B
:101D5000DFF89C30DFF89440DFF88C1048B900F0D1
:101D60001EF820F48070206017D100F01FF80CD40A
:101D700013E0B0F5007F0AD100F011F840F4807054
:101D800020600AD100F012F807D5032010BD0A68C0
:101D900022F4C06242F480620A60002010BD08682C
:101DA00000F4C060B0F5806F206870470C6824F4C0
:101DB000C06444F400740C601868DFF838304243A3
:101DC000B2FBF3F0401C00E0401E4A69530501D508
:101DD0000028F9D14869410570470748016841F476
:101DE000804101607047000000700040807000403A
:101DF0001400002040420F000870004010B5044657
:101E000010460A460146204600F09EFA204610BDC4
:101E10002DE9F84F00276A4A6A4B4FF00F08054634
:101E20000E4634E0684CA54214BF062405248C40BD
:101E3000664944EA0E0441F82C40C143146801EAA3
:101E4000040C7468E40348BF40EA0C0CC2F800C0FC
:101E5000546801EA040C7468A40348BF40EA0C0CFF
:101E6000C2F804C0946801EA040C7468E40248BF34
:101E700040EA0C0CC2F808C0D46801EA040C71688E
:101E8000890248BF40EA0C0CC2F80CC07F1C3168C4
:101E900031FA07F000F085800124BC4014EA01000B
:101EA000F4D04FEA470C032101FA0CF16FEA010E5E
:101EB0007168012918BF022903D0112918BF1229FE
:101EC00012D1A968D6F80C900EEA010109FA0CF9B2
:101ED00049EA0101A960696821EA04047168C1F353
:101EE0000011B9400C436C60E968B4680EEA010166
:101EF00004FA0CF42143E960B9007468022C18BF9D
:101F0000122C12D1FC0805EB840401F01C09D4F852
:101F100020A008FA09FB2AEA0B0AD6F810B00BFA3F
:101F200009F949EA0A09C4F820902C680EEA040E5F
:101F3000347904F0030404FA0CF444EA0E042C602F
:101F40007468E400A2D51C6844F001041C604FEAE8
:101F5000970C1C6804F00104009401F00C01009C33
:101F60001A4C54F82C4008FA01FE24EA0E0EB5F182
:101F7000904F08BF002413D0154CA54208BF012480
:101F80000ED0144CA54208BF022409D0124CA54221
:101F900008BF032404D0114CA5427FF443AF0424AE
:101FA00045E7BDE8F18F0AB18161704781627047F2
:101FB0000B4A136803421CBF106000F013B870474F
:101FC0000004014060100240001400480800014075
:101FD0000004004800080048000C004800100048B9
:101FE00014040140704730B40EE0026843680244B4
:101FF0000830DC0744BFA9F10104E31852F8045B80
:1020000043F8045B091FF9D150F8041B0029ECD1F7
:1020100030BC704738B586B000F0CAF900F0E0F87F
:102020001422002101A8FFF7E9FE654C606840F02A
:10203000040060600022606800F0040000900098D6
:10204000616841F020016160606800F0200000904C
:102050000098616841F001016160606800F0010072
:1020600000900098616841F0020161602021606881
:1020700000F00200009000984FF09040FFF793FFAF
:102080004FF400504F49019002910022039201A9A0
:102090004D48FFF7BDFE202101910122002103914F
:1020A0000491029201A94FF09040FFF7B1FE002287
:1020B0000021282000F0FEF8282000F019F92068FF
:1020C00040F004002060216801F0040100910098B4
:1020D000216841F001012160002122683B4C02F09F
:1020E00001020092002200980B2000F0E3F80B2080
:1020F00000F0FEF8364820604FF4E1310C20002259
:1021000060616160A260E2602261A261226262623B
:10211000A262204600F05CF908B100F0A9F80021A5
:10212000204600F0F1FB08B100F0A2F800212046A3
:1021300000F0F5FB08B100F09BF8204600F0C6FB6C
:1021400008B100F095F82348234944F88C0F002289
:102150000120E0606160A26022616261A261E261CF
:1021600022622046FEF7E6FE08B100F081F8002169
:10217000204600F033FC08B100F07AF80021204638
:1021800000F041FC08B100F073F800F077FC4FF468
:102190007A7000F08BFD00BF36A4104D00210020A6
:1021A00000F07AFDD5E900010A46014601232046E8
:1021B00000F05FFD00F0D0FC642000F077FDEDE75B
:1021C00048100240000011100008004818040020C8
:1021D0000080004000540040FBA7A0300000002019
:1021E00080B5A8B03822002105A8FFF707FE142209
:1021F00000216846FFF702FE5422002113A8FFF7D2
:10220000FDFD0020FFF7A2FD4FF48072089202212D
:10221000022205910C920D924021042209910E9206
:10222000552102220F9110921192129205A800F0EE
:1022300051FD08B100F01CF80F200321009001911E
:1022400000220292039204920421684600F023FFC8
:1022500008B172B6FEE760201390002119911A911F
:1022600013A801F04DF808B172B6FEE729B000BD21
:1022700072B6FEE7546573745F4F4C45440000002E
:102280000901020002D42A4881547047294B02F008
:102290000F021A4402F8041C7047274B19684FF6C6
:1022A000FF020002114000F4E060084323490843A4
:1022B0001860704770B5204B1C68C4F302230124DA
:1022C000C3F10705052D2EBF0F2504FA05F56D1E78
:1022D0001E1D072E34BF0023DB1E2940994004FA3F
:1022E00003F3BDE870405B1E1A401143C8E70000CD
:1022F000010007D4012200F01F01114B8A40400960
:1023000043F82020704710B5401EB0F1807F01D304
:10231000012010BD0B4C60600F214FF0FF30FFF724
:10232000AFFF0021A16007202060002010BD000049
:1023300000E400E018ED00E00CED00E00000FA051C
:1023400000E100E010E000E062F30F2262F31F42C0
:10235000401810F0030308D0C91A1FD3DB0748BF89
:1023600000F8012D28BF20F8022D130030B41446C8
:102370001546103928BF20E93C00FAD8490728BF84
:1023800020E90C0048BF40F8042D890028BF20F840
:10239000022D48BF00F8012D30BC7047C91818BF86
:1023A00000F8012DCB0728BF00F8012D7047000071
:1023B000032010B5FFF771FF002001F0E7F80024BB
:1023C000002814BF0124FFF7AFFA204610BD00001B
:1023D00038B5040009D004F17C05696809B900F03A
:1023E0001EF800F021F8012801D1012032BDA06AB9
:1023F00008B100F02AF800F00AF821F02A01FFE7FE
:10240000816000F01BF8BDE8324000F0CCB92068D4
:10241000416821F490414160206881687047002044
:1024200028702046FFF706BB2421696020680268F7
:10243000520852000260204600F00AB82068016885
:1024400041F00101016020467047204600F048B984
:10245000F8B50446DFF834142268DFF834E4136872
:10246000A068DFF830740B402169034360690B43B7
:10247000E1690343606E0B43034313600025516819
:10248000E06821F4405101435160A369DFF8F8137B
:102490008A421CBF206A03439668DFF8FC030640AB
:1024A000334393600FF20C46D36A606A1B0940EA1B
:1024B0000313D3627245DFF8E4034FF400433FD1C6
:1024C0003F6807F00307032F48D8DFE807F0028AC8
:1024D000799E4FF0010CE169B1F5004F4FF6F077AE
:1024E00040F0C680BCF1000F0FD0BCF1010F00F02E
:1024F000B780BCF1020F0CD0BCF1040F00F0B38028
:10250000BCF1080F00F0B280DFE000F0C9FE002847
:1025100015D0626A616836F81230B0FBF3F04A08F1
:1025200002EB4002B2FBF1F080B2A0F11001B9421F
:10253000EAD20740C0F3420007432068C760C5E005
:10254000DFF85CC362452CD13F6817F00C076ED0F2
:10255000042F46D0082F33D00C2F56D04FF0100C3C
:102560008A42B8D1BCF1000F09D0BCF1020F0AD0E9
:10257000BCF1040F5DD0BCF1080F5DD0A5E000F008
:102580008FFE0028DBD0616A36F81120B0FBF2F62E
:10259000626802EB42018E4202D31303B3424DD272
:1025A00093E0DFF800C362450DD13F6817F03007B4
:1025B0003DD0102F15D0202F02D0302F25D0CDE7C1
:1025C0004FF0020CCCE7DFF8E0C262450CD13F6867
:1025D00017F0C0072BD0402F03D0802FF0D0C02F92
:1025E000ECE74FF0040CBBE7DFF8C0C262450FD147
:1025F0003F6817F440771AD0B7F5807FF1D0B7F570
:10260000007FDDD0B7F5407FA8D14FF0080CA7E7D9
:102610008A42A3D13F6817F4406708D0B7F5806FAE
:10262000DFD0B7F5006FCBD0B7F5406FC6E7AC464B
:1026300096E700F006FEA4E71846A4E7500800213C
:1026400010EB062051EB1661002300F0C1FFA0F54E
:102650004076DFF85C72BE4237D22168C86035E050
:1026600000F026FE53E700F0ECFD50E7184650E777
:10267000BCF1000F0CD0BCF1010F1ED0BCF1020F59
:1026800009D0BCF1040F1BD0BCF1080F1BD01CE01B
:1026900000F006FED0B1626A36F812306168B0FB15
:1026A000F3F000EB5100B0FBF1F080B2A0F11001AB
:1026B000B9420AD22268D06008E000F0F9FDE9E7EB
:1026C00000F0BFFDE6E71846E5E7012504F16800E4
:1026D0000121002341800180436083602846F2BDD0
:1026E00090F82810CA0706D502685368C16A23F417
:1026F00000330B43536090F828108A0706D5026810
:102700005368016B23F480330B43536090F8281017
:102710004A0706D502685368416B23F480230B43B4
:10272000536090F828100A0706D502685368816B39
:1027300023F400430B43536090F82810CA0606D5D3
:1027400002689368C16B23F480530B43936090F845
:1027500028108A0606D502689368016C23F400539A
:102760000B43936090F828104A0610D5026853680E
:10277000416C23F480130B435360436CB3F5801F0B
:1027800005D15368816C23F4C0030B43536090F868
:1027900028100A0606D501684A68C06C22F4002297
:1027A00002434A607047F8B5044604F17C050020F6
:1027B000E8606FF07E47FFF77BF906462068016806
:1027C0000A0708D50097334600224FF4001120462F
:1027D00000F016F860B9206801684A070AD500972A
:1027E000334600224FF48001204600F009F808B17A
:1027F0000320F2BD20206860A86000202870F2BD90
:102800002DE9F041069C05460E4690461F46286875
:10281000C1693140B1420CBF01200020404520D1A8
:1028200014F1010FF3D0FFF743F9C01B844200D32A
:1028300034B900F018F8002101700320BDE8F081E0
:10284000286801684A07E2D5C1690805DFD54FF459
:1028500000612A681162002200F005F8C160027070
:10286000EBE70020EAE72868016821F4D0710160F5
:102870002868816849084900816005F17C002021B1
:10288000416081607047000000800040F369FFCF25
:102890000038014088100240FFF4FF110024F400CA
:1028A0000044004000480040004C00400050004000
:1028B00000FD0F00010002000400060008000A00ED
:1028C0000C001000200040008000000110B500F155
:1028D0007C010A78012A01D1022010BD01220A7070
:1028E00024234B6002681368146864086400146051
:1028F0000022426623F000530068036020224A60F1
:1029000000230B70002010BD70B500F01FF801D13E
:10291000022070BD00F020F822F0604209E070B59E
:1029200000F014F801D1022070BD00F015F822F07B
:10293000606211438160204600F01CF82068066048
:102940002021696000222A70002070BD044604F135
:102950007C052878012870470120287024226A60AD
:102960002068066802685208520002602068826887
:1029700070470000FFB500BF14A200BF15A6D2E942
:10298000003402A9C1E90034D6E90071CDE9007133
:10299000416E11B90121012213E001688A6889683A
:1029A000520E02F00702490F02AC655CA45C1DF8F0
:1029B00001101DF80220ED00E40095FBF1F194FBFD
:1029C000F2F2683041800280FFBD00000101010386
:1029D00007010000080402040801010130B500F1FC
:1029E00040025378202B0CD11478012C09D000F030
:1029F0001DF824F480541C6003681D682943196085
:102A000020E0022030BD30B500F140025378202B89
:102A10000AD11478012C07D000F008F824F470646F
:102A200044EA01241C600DE0022030BD0123137034
:102A30002424547003681D686D086D001D600368D0
:102A40001C6870470068016841F0010101602020A6
:102A5000507000211170002030BD000001B584B01D
:102A60000A20012104AA0290019100920123002270
:102A700078218B48FEF7C0FA05B000BD80B5642010
:102A800000F014F9AE20FFF7E9FF2020FFF7E6FF82
:102A900000F081F8B020FFF7E1FFC820FFF7DEFF6C
:102AA0000020FFF7DBFF00F076F84020FFF7D6FFAD
:102AB0008120FFF7D3FFFF20FFF7D0FFA120FFF712
:102AC000CDFFA620FFF7CAFFA820FFF7C7FF3F20D2
:102AD000FFF7C4FFA420FFF7C1FFD320FFF7BEFF1D
:102AE0000020FFF7BBFFD520FFF7B8FFF020FFF76E
:102AF000B5FFD920FFF7B2FF2220FFF7AFFFDA20A2
:102B0000FFF7ACFF1220FFF7A9FFDB20FFF7A6FFBE
:102B10002020FFF7A3FF8D20FFF7A0FF1420FFF771
:102B20009DFFAF20FFF79AFF002000F009F800F0AA
:102B300013F85C480021012301604371012002BDAC
:102B40000021594A03000CBF0023FF235354491CA2
:102B5000B1F5806FF6D370477FB50024504D524ECB
:102B6000A4F15000C0B2FFF779FF0020FFF776FF15
:102B700000F011F86420802106EBC412029001914C
:102B800000920123402278212846FEF735FA641C82
:102B9000082CE5DB7FBD102060E7802800DB704754
:102BA00070B540290CDACB083E4D3F4C00EBC3100A
:102BB0002B7933B13AB100F00AF822EA010121542D
:102BC00070BD012AF7D100F002F81143F7E78D0834
:102BD00001EB5576F608225C0123A1EBC60103FA4E
:102BE00001F170472DE9F74F2E4C9DF80410B4F811
:102BF000008041448029BFBF9DF805906188494409
:102C000040291E46A8BF00202DDA00278DF80000BD
:102C100000E07F1C9DF8050087421ED29DF8001041
:102C200002986588203909FB017130F811A04FF036
:102C3000000B7D199DF804008345EAD20AFA0BF1D6
:102C400009040BEB0800F2B202D4521E9241D20FDB
:102C500000F00CF80BF1010BECE79DF80400404488
:102C600020809DF80000BDE8FE8F4A46E9B2C0B260
:102C700093E7F8B506460C4615461F4600E0761C5D
:102C8000307838B1FBB221462A46FFF7ABFF3178E6
:102C90008842F4D03078F2BD024A108051807047EB
:102CA000A4040020500500201800002038B5044678
:102CB000FEF7FEFE14F1010F054602D004498868B4
:102CC0000419FEF7F5FE401BA042FAD331BD00BF48
:102CD000080000202DE9F84304006DD02078DFF8CB
:102CE000E865C10717D500F0D0F90CD101F0030158
:102CF00003290AD06068B0F5803F2AD1306840F4DB
:102D00008030306037E00828F4D13068810302D584
:102D10006068002850D02178880759D500F0B5F9AF
:102D200043D101F00301022941D0E06800286AD0B4
:102D3000316841F480713160FEF7BAFE05463068B3
:102D400041055DD4FEF7B4FE401B0328F7D30320F2
:102D500091E1B0F5A02F306806D140F480203060BA
:102D6000316841F4803105E020F480303060316812
:102D700021F480213160606858B1FEF799FE054664
:102D800030688103C7D4FEF793FE401B6528F7D354
:102D9000DDE7FEF78DFE054630688103BBD5FEF703
:102DA00087FE401B6528F7D3D1E70428BDD13068E2
:102DB000410503D5E068002800F05A8100F05DF974
:102DC000DFF81005006800F0E1FB002840F05081BA
:102DD0002078DFF80475010734D560690028786829
:102DE00021D040F001007860FEF762FE0546786869
:102DF000810727D4FEF75CFE401B0328F7D3A6E724
:102E000000F03BF9E4E7306820F480703060FEF7B2
:102E10004FFE054630684105DAD5FEF749FE401BF6
:102E20000328F7D393E7400840007860FEF740FEA0
:102E300005467868810705D5FEF73AFE401B032852
:102E4000F7D384E72078410763D5B06D0025C10032
:102E500009D4B06D40F08050B0650125B06D00F030
:102E6000805000900098DFF87484D8F80000C10505
:102E700013D4D8F8000040F48070C8F80000FEF7C2
:102E800017FE8146D8F80000C10506D4FEF710FEF3
:102E9000A0EB09000328F5D359E7A068012804D165
:102EA000386840F00100386010E00528386806D125
:102EB00040F004003860396841F0010105E0400845
:102EC00040003860396821F004013960A06841F29F
:102ED000893860B1FEF7ECFD81463868810713D46C
:102EE000FEF7E6FDA0EB09004045F6D32FE7FEF71D
:102EF000DFFD81463868810706D5FEF7D9FDA0EBD6
:102F000009004045F6D322E71DB1B06D20F0805096
:102F1000B0652078810621D5A0690028B8680ED058
:102F200040F00100B860FEF7C3FD0546B8688107B0
:102F300014D4FEF7BDFD401B0328F7D307E7400874
:102F40004000B860FEF7B4FD0546B868810705D5B6
:102F5000FEF7AEFD401B0328F7D3F8E6E069002832
:102F600000F08880B16801F00C010C2955D00228CE
:102F7000306820F0807030603AD1FEF799FD054648
:102F80003068810105D5FEF793FD401B0328F7D378
:102F9000DDE6F068DFF84813226A0840616A1043F2
:102FA000491E40EA0110226BA16A520840EA012042
:102FB000616B521E490840EA4250491E40EA416096
:102FC000E16A40EAC160F060306840F080703060D3
:102FD000F16841F08071F160FEF76AFD04463068E7
:102FE000810147D4FEF764FD001B0328F7D3AEE64A
:102FF000F168DFF8F00289088900F160F1680140AA
:10300000F160FEF755FD04463068810132D5FEF7C8
:103010004FFD001B0328F7D399E6012828D0F0685C
:10302000226A00F00301914201BF00F0F001626AE0
:10303000521EB1EB021F1BD1A26A00F4FE41B1EB9C
:10304000022F02BF00F07841E26AB1EBC26F0FD1EC
:10305000226B520800F4C001521EB1EB425F07D14F
:10306000616B490800F0C060491EB0EB416F01D0B0
:10307000012000E00020BDE8F2837068216920F0A3
:10308000FE4040EA016070607047B068F16800F08F
:103090000C000C2870472DE9F04704460027002C4F
:1030A000894668D0DFF8406200F0C6F804D200F02C
:1030B000BDF800F0C1F85ED12078DFF80C52C107EE
:1030C00041F2893859D56068DFF820A2032828D159
:1030D000286881014FD5E968E868C0F30310401CF7
:1030E00001F0030103290CBFDFF80412DFF8E0113F
:1030F000B1FBF0F1E868C0F306204143E868C0F393
:103100004160401C4000B1FBF0F0504519D3A96864
:1031100011F0F00F0ED02078810712D5A06880B989
:1031200008E00228286824D1810324D500F089F81A
:10313000504506D3A86820F0F00040F08000A86059
:103140008027A9686068890840EA8101A960FEF7C4
:10315000AFFC8246A868616800F00C00B0EB810FFC
:103160000BD0FEF7A5FCA0EB0A004045F2D30320EC
:103170005AE04105DAD4012056E02068810715D5D0
:10318000400703D5A96841F4E061A96020780107F0
:1031900005D5A86820F4605040F4E060A860A968F4
:1031A000A06821F0F0010143A96005E0802F03D160
:1031B000A86820F0F000A860306800F00F0081459A
:1031C0000DD200F033F8FEF773FC074600F034F838
:1031D00005D0FEF76DFCC01B4045F7D3C7E720784C
:1031E000410705D5AA68E06822F4E0620243AA60BC
:1031F0002178080706D5A968206921F4605141EAC1
:10320000C001A96000F01DF8AA683A49C2F3031290
:10321000895C2E4A01F01F01C8401060BDE8F047EC
:103220002C48006800F0B2B9BDE8F08731680909A0
:1032300049EA011131607047306800F00F004845DD
:1032400070472D49086800F00C00042801D120487F
:103250007047086800F00C00082801D12448704726
:10326000086800F00C000C2818D14A684868C0F3C0
:103270000310401C02F00302032A0CBF1C4A144A2C
:10328000B2FBF0F24868C0F3062042434868C0F33E
:103290004160401C4000B2FBF0F0704700207047D6
:1032A0000A48154A006813681449C3F3022206E06D
:1032B0000648114A006813681049C3F3C222895CAA
:1032C00001F01F01C84070470010024014000020A8
:1032D0000024F4000C000020901002400070004018
:1032E0000C809F01FFFFEEFE0020024001B4C404E9
:1032F00000366E0140370008081002404C380008C4
:103300002DE9FC4705464FF000082868DFF8706299
:10331000DFF87072010353D5F06CC100C1460AD4C6
:10332000F06C40F08050F0644FF00109F06C00F058
:10333000805000900098DFF85042206840F4807080
:103340002060FEF7B5FB82462068C10506D4FEF773
:10335000AFFBA0EB0A000328F6D321E0386810F495
:1033600040701CBF296D88420BD03868396841F421
:103370008031396020F440703A6822F480323A603B
:103380003860C0070FD5FEF793FB04463868810705
:1033900009D4FEF78DFB001B41F289318842F5D339
:1033A0004FF0030805E03968286D21F440710143AE
:1033B0003960B9F1000F03D0F06C20F08050F06458
:1033C0002878C10705D5F26F6868920840EA820242
:1033D000F2672978880705D5F16FA86821F00C01FC
:1033E0000143F1672978480705D5F16FE86821F0B6
:1033F00030010143F1672978080705D5F16F286985
:1034000021F0C0010143F1672978C80605D5F16FA5
:10341000686921F440710143F1672978880605D570
:10342000F16FA86921F440610143F16729784806EA
:1034300005D5F16FE86921F440510143F16729781E
:10344000080605D5F16F286A21F440410143F16770
:103450002968C80505D5F16F686A21F44031014338
:10346000F1672968880305D5F968A86A890840EAE0
:103470008101F9602968880505D5F16FE86A21F4B2
:1034800040210143F167296848050AD5F16F286B8F
:1034900021F440110143F167296BB1F5801F00F061
:1034A00069F8296808050AD5F16F686B21F44001B5
:1034B0000143F167696BB1F5800F00F05BF8296893
:1034C000C8040AD5F16FA86B21F040710143F16780
:1034D000A96BB1F1807F00F04DF82968880408D508
:1034E000F16FE86B21F040610143F167E96B00F097
:1034F0003FF82968480408D5F16F286C21F0406135
:103500000143F167296C00F033F8296808040AD5F3
:10351000F16F686C21F040510143F167696CB1F1C2
:10352000805F00F01FF82968C8030AD5F16FA86C06
:1035300021F040410143F167A96CB1F1804F00F0E7
:1035400011F8296848030AD5F968E86C21F440119C
:103550000143F960E96CB1F5001F00F00BF840463B
:10356000BDE8F68703D1306840F4803030607047A2
:10357000B1F1006F03D1306840F4801030607047C3
:103580000C100240901002400070004070B50E4ECA
:103590000446B0680025A0B14FF47A710B4AB1FB24
:1035A000F0F11068B0FBF1F0FEF7ADFE48B9102C59
:1035B00007D2002221464FF0FF30FEF77BFE7460F9
:1035C00000E00125284670BD0800002014000020FE
:1035D000D3BBD9B1B2F5803F5BD2022A1ED98C464B
:1035E000B1FBF2F102FB11C31B0443EA1043B3FB2E
:1035F000F2FC02FB1C3380B240EA0343B3FBF2F05F
:1036000002FB103240EA0C4000237047022A05D921
:103610008446B0FBF2F002FB10C270474AB105D1FC
:1036200000F0010249085FEA3000704700220023E1
:10363000704700F051B80B000200002100207047D5
:10364000F7D3002200237047904271EB030CF2D3B2
:1036500070B5B1FA81F4B3FA83F52C1BA340C4F121
:10366000200532FA05F63343A2405FF00046E640FB
:1036700002E05B085FEA3202841A71EB030524BFA3
:10368000204629467641F4D302000B003000002189
:1036900070BD70B5B1FA81F4B2FA82F5C4F12004BC
:1036A0006419B4F12006DAD3B2405FF00044F4406C
:1036B000002502E052085FEA3303C61A71EB020EDE
:1036C00024BF3046714664416D41F3D302000B00C4
:1036D0002000290070BD000070470000FEE7FEE7F3
:1036E000FEE7FEE7FEE770477047704700F012B84C
:1036F0000448FEF78ABA0448FDF734BD0248FDF7D6
:1037000039BD0000F0040020A40400204FF4005054
:10371000FEF74EBC02490A68886882180A60704742
:10372000080000200448054A016841F47001016066
:103730004FF000601060704788ED00E008ED00E099
:103740000000000000000000010203040607080951
:1037500010B5074979441831064C7C44163404E00E
:103760000A68081D114488470146A142F8D110BDDE
:103770002C0000004C0000004EF68851CEF20001F3
:10378000086840F470000860BFF34F8FBFF36F8F7D
:103790004FF00070E1EE100A7047000053E1FFFFA8
:1037A0004005000018000020000000003BE8FFFF7B
:1037B0001800000070000000000000200000000061
:1037C00000F00DF8002801D0FFF7C2FFAFF3008032
:1037D0000020AFF30080FEF71DFC00F002F801208E
:1037E000704700F001B800000746384600F002F8C4
:1037F000FBE7000080B5AFF30080024A11001820FB
:10380000ABBEFBE7260002000548014603B468464C
:1038100080F30988AFF30080FFF7AEFFFFF7D0FF1A
:10382000A5EDF5FE0B120000D80100080000000015
:1038300010000000010000000024F400014880474F
:10384000014800472537000809380008000000003B
:1038500001020304FFF7FEBFFFF7FEBFFFF7FEBF45
:10386000FFF7FEBFFFF7FEBFFFF7FEBFFFF7FEBF8C
:10387000FFF7FEBFFFF7FEBFFFF7FEBFFFF7FEBF7C
:10388000FFF7FEBFFFF7FEBFFFF7FEBFFFF7FEBF6C
:10389000FFF7FEBFFFF7FEBFFFF7FEBFFFF7FEBF5C
:1038A000FFF7FEBFFFF7FEBFFFF7FEBFFFF7FEBF4C
:1038B000FFF7FEBFFFF7FEBFFFF7FEBFFFF7FEBF3C
:1038C000FFF7FEBFFFF7FEBFFFF7FEBFFFF7FEBF2C
:1038D000FFF7FEBFFFF7FEBFFFF7FEBFFFF7FEBF1C
:1038E000FFF7FEBFFFF7FEBFFFF7FEBFFFF7FEBF0C
:1038F000FFF7FEBFFFF7FEBFFFF7FEBFFFF7FEBFFC
:10390000FFF7FEBFFFF7FEBFFFF7FEBFFFF7FEBFEB
:10391000FFF7FEBFFFF7FEBFFFF7FEBFFFF7FEBFDB
:10392000FFF7FEBFFFF7FEBFFFF7FEBFFFF7FEBFCB
:10393000FFF7FEBFFFF7FEBFFFF7FEBFFFF7FEBFBB
:10394000FFF7FEBFFFF7FEBFFFF7FEBFFFF7FEBFAB
:10395000FFF7FEBFFFF7FEBFFFF7FEBFFFF7FEBF9B
:10396000FFF7FEBFFFF7FEBFFFF7FEBFFFF7FEBF8B
:10397000FFF7FEBFFFF7FEBFFFF7FEBFFFF7FEBF7B
:10398000FFF7FEBFFFF7FEBFFFF7FEBFFFF7FEBF6B
:10399000FFF7FEBFFFF7FEBFFFF7FEBFFFF7FEBF5B
:1039A000FFF7FEBFFFF7FEBFFFF7FEBFFFF7FEBF4B
:1039B000FFF7FEBFFFF7FEBFFFF7FEBFFFF7FEBF3B
:1039C000FFF7FEBFFFF7FEBFFFF7FEBFFFF7FEBF2B
:0839D000FFF7FEBFFFF7FEBF89
:0400000508003809AE
:00000001FF
